:10035B00C10010543F065B4F666D7D077F6F777C46
:0D036B00395E7971014E0004500000000160
:02002600AB0726
:10002800EB24FE601F1460332462604014604B149C
:10003800605624A270647531527532457533417526
:10004800344480507531577532527533497534547C
:10005800753545750A00750B05803F753153753246
:1000680045753354750A00750B03802E753152752A
:10007800324175334375344B801A753157753241A7
:1000880075334375344B800C753153753241753374
:100098004375344B750A00750B04E50B2407FFE420
:1000A800350AFEEF2406F50DE43EF50C7526FF75BE
:1000B80027557528FF7529AAAD07EDF52AEEF52B0A
:1000C800E553FFE48F2CFFE552FEE4FDFC780812AF
:1000D80002FE8F2DE4FFE552FEE4FDFC78101202CB
:1000E800FE8F2EE4FFE552FEE4FDFC78181202FEB6
:1000F8008F2F8B307424250DF876FEE4F511F5105A
:10010800F50FF50EFBFAE50D24FFFFE50C34FFFEB5
:10011800C3EB9FEE6480F8EA648098502574262B20
:10012800F8E6FFE4FCFDFEE5112FF511EE3510F5BC
:1001380010ED350FF50FEC350EF50E0BBB00010A6F
:1001480080C4E511FF7425250DF8A607AE0CAF0D88
:010158002284
:03000B0002029658
:10029600C0E0C0D075D000C000758CFC758A17050B
:1002A6004F0522E52270020521E54FB40A03754F7A
:1002B600000523E523B40203752300E52314600B30
:1002C60004701575A000E564C4800575A001E56499
:0F02D600540F2454F8E6F580D000D0D0D0E03299
:10037900758E80439850758B80758DFB438E40C276
:0C03890098C299D28ED2ACD2AFD2BC2266
:080003008F993099FDC299228A
:100242008E088F09E5532401F553E43552F552E443
:100252003551F551E43550F5507B007A007926ADE1
:0302620009AC08DC
:0A0265008B0A8A0B890C8C0D8D0E9C
:10026F00E4FFEFC3950EE4950D501BAB0A050CE5AB
:10027F000CAA0B7002050B14F91202E5F5993099CF
:06028F00FDC2990F80DCA6
:010295002246
:0300230002000ECA
:10000E0030980EC298859925852524754E01852533
:02001E0064324A
:10031100E4F5B2F5B17596FFF5957594FFF5937512
:100321008901D2A9758CFC758A17D28C120379C206
:0603310000F521F5222277
:040337007FE87E03DA
:10033B00D3EF9400EE6480948040147D6E7C00EDCE
:0F034B001D70011CED4C70F7EF1F70E41E80E178
:01035A002280
:1001E500120311E54E6020E4F54EE52524CE600BA3
:1001F50014600C240270107FA180067FA280027F0C
:10020500A312002612024220B20E12033720B208B2
:100215007F0112002612024220B30E12033720B3CB
:10022500087F021200261202422097B712033720D8
:0D02350097B17F031200261202420201E879
:03000000020159A1
:0C015900787FE4F6D8FD7581640201A0F7
:1002E500BB010689828A83E0225002E722BBFE0217
:0902F500E32289828A83E493224A
:1002FE00E8600FECC313FCED13FDEE13FEEF13FFDE
:03030E00D8F12201
:100165000201E5E493A3F8E493A34003F68001F2CA
:1001750008DFF48029E493A3F85407240CC8C3339B
:10018500C4540F4420C8834004F456800146F6DF6A
:10019500E4800B010204081020408090035BE47E9C
:1001A500019360BCA3FF543F30E509541FFEE4935F
:1001B500A360010ECF54C025E060A840B8E493A326
:1001C500FAE493A3F8E493A3C8C582C8CAC583CA51
:1001D500F0A3C8C582C8CAC583CADFE9DEE780BE09
:010378000084
:00000001FF
