:1001E600010F00011700011828011900011C000267
:1001F6001A0000010C00011D010114000115000187
:100206000E00010B00010900010A00010800011E91
:0D02160000010D000116000410000003E8B7
:10022400E4F58E439850758BE8758DFF438E40C27C
:1002340098C299D28EF58975A8B2758CEC758A77B7
:05024400D28CD2BC22A7
:0300230002012DAA
:10012D00C0E0C0D030985EC298E519B518057518B5
:10013D00288052E50F700CE599B45A07859917057B
:10014D000F8042E50FB4010E859918E518B45A02D7
:10015D008012050F802FE50F64027029859919E52E
:10016D0019B45A08750F0175175A8019E517251816
:10017D00F51BE433F51A851B1CE519651C60037529
:0A018D001828750F00D0D0D0E03222
:040269007F027E0092
:10026D00EF1FAA0670011E4A60107C007D3CED1D3B
:0A027D00AA0470011C4A60E880F436
:010287002254
:0B02C400E4F5998F993099FDC2992252
:03000B000200BA36
:1000BA00C0E0C0F0C0D075D000C006C007E51D651D
:1000CA00187053F5A87FA5FE1202C4AF141202C419
:1000DA00AF151202C4AF0E1202C4AF0B1202C4E56E
:1000EA000A25E025E02509FFE508C454F02FFFE5BD
:1000FA001E75F040A42FF50DFF1202C4E51424A5C5
:10010A002515250E250B250DF516FF1202C4751DA2
:10011A000175A8B28002051DD007D006D0D0D0F054
:03012A00D0E032F0
:10000E0075A890759DFFE4F5BDF5BE75BCE8F59736
:04001E0075A8B222ED
:1002880075A890759DFFE4F5BDF5BE75BCE9F597B9
:0402980075A8B22271
:10029C0075A890759DFFE4F5BDF5BE75BCEBF597A3
:0402AC0075A8B2225D
:1002B00075A890759DFFE4F5BDF5BE75BCECF5978E
:0402C00075A8B22249
:03002B0002019738
:10019700C0E0C0D075A890E50C700B750C0185BD4B
:1001A7001485BE09802EE50CB4010B750C0285BDC4
:1001B7001585BE0A801EE50CB4020B750C0385BDC0
:1001C7000E85BE08800EE50CB40309750C0085BECC
:0F01D7001E85BD0B53BCEF43BC08D0D0D0E03227
:10024900120224E4F58012000E12026912028812C9
:10025900026912029C1202691202B012026980E656
:03000300020249AD
:0300000002002ECD
:0C002E00787FE4F6D8FD75811E02007595
:10003A00020003E493A3F8E493A34003F68001F2D9
:10004A0008DFF48029E493A3F85407240CC8C333C7
:10005A00C4540F4420C8834004F456800146F6DF96
:10006A00E4800B01020408102040809001E6E47E3F
:10007A00019360BCA3FF543F30E509541FFEE4938B
:10008A00A360010ECF54C025E060A840B8E493A352
:10009A00FAE493A3F8E493A3C8C582C8CAC583CA7D
:1000AA00F0A3C8C582C8CAC583CADFE9DEE780BE35
:0102230000DA
:00000001FF
