:1001A400C100100F3F065B4F666D7D077F6F777C44
:0701B400395E7971010D00B5
:03000B000200B23E
:1000B200C0E0C0D075D000C000758CFC758A1705F1
:1000C2000E0509E50970020508E50EB40A03750E6E
:1000D20000050AE50AB40203750A00E50A14600B7A
:1000E20004701575A000E51FC4800575A001E51F09
:0F00F200540F240FF8E6F580D000D0D0D0E032C4
:10015600758E80439850758B80758DFB438E40C29B
:0C01660098C299D28ED2ACD2AFD2BC228B
:080003002000FDD2008F9922BC
:0A0101008B218A2289238C248D258E
:10010B00E4FFEFC39525E49524501BAB210523E5B4
:10011B0023AA227002052214F912018BF59930994A
:06012B00FDC2990F80DC0B
:0101310022AB
:0300230002017265
:1001720030980EC29885990C850C0B750D01850C73
:090182001F309904C299C2003239
:10013200E4F5B2F5B17596FFF5957594FFF59375F3
:100142008901D2A9758CFC758A17D28C120156F5D9
:0401520008F5092281
:10000E00120132E50D60FCE4F50DAF0B120003801A
:01001E00F2EF
:03000000020026D5
:0C002600787FE4F6D8FD75812502006D9E
:10018B00BB010689828A83E0225002E722BBFE0272
:09019B00E32289828A83E49322A5
:1000320002000EE493A3F8E493A34003F68001F2D6
:1000420008DFF48029E493A3F85407240CC8C333CF
:10005200C4540F4420C8834004F456800146F6DF9E
:10006200E4800B01020408102040809001A4E47E89
:10007200019360BCA3FF543F30E509541FFEE49393
:10008200A360010ECF54C025E060A840B8E493A35A
:10009200FAE493A3F8E493A3C8C582C8CAC583CA85
:1000A200F0A3C8C582C8CAC583CADFE9DEE780BE3D
:0101BB000043
:00000001FF
